:020000040000FA
:0400000000008A2949
:040004000034003490
:0800080005280000AD000130E5
:100010008A002D088F21AE0001308A002E089A2117
:10002000003E031916280521AE0A0E280800A30079
:10003000A500AC121030A900352005210130A9001F
:10004000AC163520052108008207303431343234B3
:100050003334343435343634373438343934413445
:1000600042344334443445344634A7012908250238
:10007000031C3F28A70A2908A502AC163728003020
:100080008A00270824200800A300A500AC126430D1
:10009000A9009F2005210A30A9009F2005210130D9
:1000A000A900AC169F20052108002308A5002408FC
:1000B000A600AC121030A9002730A800AE20052100
:1000C000E830A9000330A800AE2005216430A90063
:1000D000A801AE2005210A30A900A801AE20052103
:1000E0000130A900A801AC16AE2005210800AC1211
:1000F0008030A9009630A8009830AA00AB01C72034
:100100000521AC164030A9004230A8000F30AA00EB
:10011000AB01C72005212C300521A030A900863075
:10012000A8000130AA00AB01C72005211030A900AA
:100130002730A800AA01AB01C72005210800A701AC
:1001400029082502031CA928A70A2908A502AC161C
:10015000A12830302707AC1E20300800A70128084E
:100160002602031CC228031DB92829082502031CE6
:10017000C2282808A6022908A502031CA603A70A6C
:10018000AC16AF2830302707AC1E20300800A7017E
:100190002B082602031CEF28031DDE282A0825024F
:1001A000031CEF28031DDE2828082402031CEF2867
:1001B000031DDE2829082302031CEF282B08A602B2
:1001C0002A08A502031CA6032808A402031CA503F1
:1001D0002908A302031CA403A70AAC16C8283030C0
:1001E0002707AC1E20300800A100F030850521084B
:1001F0000F3985040800043033210516000005126C
:10020000043033210800851206298516A200220E2B
:10021000F420FB202208F420FB20F0308505851215
:10022000080005128512F0308505103033210330A7
:10023000F420FB20043033210830F420FB2004306C
:1002400033210230F420FB20043033212C300321F1
:1002500009300321283003210C3003210130032110
:10026000083033210800A000C830AB0000000000B7
:100270000000AB0B3629A00B34290800B30007148B
:100280003108332133180710331C07143321B318F6
:100290000710B31C0714332133190710331D07143B
:1002A0003321B3190710B31D07143321331A071074
:1002B000331E07143321B31A0710B31E071433215A
:1002C000331B0710331F07143321B31B0710B31F51
:1002D0000714332107103321332108000830B400FC
:1002E000061B7029310CB2020B110B1D7529061B60
:1002F00070293030B2000B110B1D7C293030B20058
:100300000B110608B000B00CB30CB40B7C290B1D0C
:10031000872908001A221121402200008D29820716
:1003200000340A34133428342F343B3446345434E4
:1003300060346C34820720344F342034423420340B
:1003400044342034323420340034493453344F346C
:10035000203439343134343431340034433441348A
:100360004E342034203420342034623469347434E0
:1003700073342F3420342034203420344B3462340E
:100380007034733400346D3473346734203449343A
:10039000443400344E346F3472346D3461346C3410
:1003A00020346D346F3464346534003453346C3429
:1003B00065346534703420346D346F34643465349E
:1003C00000344C346F346F347034423461346334ED
:1003D0006B3420346D346F346434653400344C3401
:1003E00069347334743465346E3420346D346F344E
:1003F00064346534003443346F346E3466346934A5
:10040000673420346D346F34643465340034203400
:10041000203445346C3465346334743472346F344E
:100420002D3453346F346C34753463346F34653425
:10043000733400346400831606309F0085308100D9
:10044000203084008001840A841F222AA030840086
:100450008001840A841F282A332283160C148312F5
:100460008F018E010800831285018601870107151F
:10047000831685017F308600FC30870083120800D8
:1004800086130710C830B100FF3033212C303321E0
:1004900033303E21482A6E21553C031DD12A60305D
:1004A000B1006E210319D12A6E210319D12AB0009F
:1004B000300E3E216A2A493453344F3420343134CB
:1004C00034343234333430345F34343420344F34C1
:1004D0004B340034803003215B22003E0319D02AC4
:1004E00005215C22003E0319D02A05215D22003E31
:1004F0000319D02A05215E22003E0319D02A0521C6
:100500005F22003E0319D02A05216022003E031914
:10051000D02A05216122003E0319D02A052162223A
:10052000003E0319D02A05216322003E0319D02A78
:1005300005216422003E0319D02A05216522003ED0
:100540000319D02A05216622003E0319D02A05216D
:100550006722003E0319D02A05216822003E0319B4
:10056000D02A05216922003E0319D02A05216A22DA
:10057000003E0319D02A05216B22003E0319D02A20
:1005800005216C22003E0319D02A05216D22003E70
:100590000319D02A05216E22003E0319D02A052115
:1005A0000134E32A493453344F3420343134343461
:1005B0003234333430342D343434203446346134DE
:1005C00069346C34003480300321D222003E031998
:1005D000492B0521D322003E0319492B0521D422A2
:1005E000003E0319492B0521D522003E0319492B52
:1005F0000521D622003E0319492B0521D722003EB2
:100600000319492B0521D822003E0319492B052146
:10061000D922003E0319492B0521DA22003E031995
:10062000492B0521DB22003E0319492B0521DC2241
:10063000003E0319492B0521DD22003E0319492BF9
:100640000521DE22003E0319492B0521DF22003E51
:100650000319492B0521E022003E0319492B0521EE
:10066000E122003E0319492B0521E222003E031935
:10067000492B0521E322003E0319492B0521E422E1
:10068000003E0319492B0521E522003E0319492BA1
:04069000052100340C
:084000000000010000000000B7
:02400E00713F00
:00000001FF
