:020000040000FA
:04000000000049298A
:040004000034003490
:08000800FF00030E8312B0009B
:100010000408B1000A08B2008A018C1936298B182D
:1000200031290B1944290C184629831232088A00F9
:1000300031088400300E8300FF0E7F0E090003118B
:10004000B61900342C30A220013903190034B6153A
:100050006130A220C1006230A220C000C01D36283D
:100060006330A220C2006430A220C300E030C0058B
:100070006530A2200F39C400B701370844020319C4
:100080004C2866303707A220CE0045303707840061
:100090004E088000B70A3D280130CF000030CE0066
:1000A0002C30B92003110134E030CF008030CE0075
:1000B0000F30B9200E30A220E039803A031D5A28B3
:1000C0000800E030CF000030CE000F30B9200E30F5
:1000D000A220E039031D672808004030CE00E03040
:1000E000CF000F30B9200E30A220E039403A031D76
:1000F00073280800CE00E030CF000F30B9200E305A
:10010000A220E0394E3A031D7F280800E030CF00DE
:100110006030CE000F30B9200E30A220E039603AB6
:10012000031D8C280800CD004D08A2204F05031D9B
:10013000942808000721A030152101301821212121
:100140002D210800CD000721033015214D08152170
:100150000130182121212D2154080800CD0007214C
:10016000023015214D0815214E08152121212D2180
:100170000800CD000721053015214D0815214F0835
:1001800015214E08152121212D210800CE0007211F
:1001900080304E04152121212D2108000721C03077
:1001A000152121212D21080083121130940083167E
:1001B00094018C15831294160800CE200730CF00CE
:1001C0000230CE000F30B9200230CE002A30AE20EF
:1001D0009030CE002930AE200330CE002830AE2043
:1001E0000030CE002030AE200030CE002130AE20D6
:1001F000DF30CE000030AE200730CE000130AE2020
:100200008330CE002B30AE2040307A200800D00161
:100210005230D10084000800501D080083168C1154
:10022000831283168C15831208008000840A08004C
:10023000FF39031908008001840AFF3E031D1829B5
:1002400008000408D0005230D002031908005230D0
:10025000D1000711520893000800D008031D2D2972
:10026000080006088B104530412715288C115108CD
:100270008400D10A13088000D00B402907151528E7
:10028000840A0008930015280B1115280C10B80AD1
:100290001528BD2107150230E2004D27C2303F2747
:1002A000093042260830E400FF306F27E40B542960
:1002B00001303F2785303F2700304226D4201C30B4
:1002C0006F2794303F270825031003117A211F2040
:1002D000003E0319642994303F2703304226621CF4
:1002E00075294308532642085326410853264008DF
:1002F00053266429060C7F3A03190800E400060C13
:10030000FF3A031DE404031D7F296408143C03190C
:10031000562DE21E08006418832DE418BE2D6419C2
:100320009A2DE419A82D641AD52D0800060C7F3AE1
:1003300003190800E400060CFF3A031D7F29641826
:10034000832DE418BE2D64199A2DE419A82D641A82
:10035000D52D08002C30A22002303F270330422642
:100360004108A4004008A3009126B6110330CF0035
:100370000030CE002C30B9200800640083168C01B8
:1003800006309F0005308100203084008001840AFF
:10039000841FC629A03084008001840A841FCC29D0
:1003A000D92183160C1483128F018E010B178B1722
:1003B00008008312850186018701071583168501D0
:1003C000FF308600D230870083120800B700640037
:1003D0000F08043EBA000F083A0280390319EB29CE
:0603E000B70BE72908003D
:10060000820700340E341C342A34383446345434CF
:10061000623470347E348C349A34A834B634C434A2
:10062000D234E034EE34820700340A3419342E34E4
:10063000363443344F345D346A347734820720349F
:100640004F34203442342034443420343234203483
:1006500000344E3461346F34203463346F346D347D
:100660007034613474346934763465346C340034F5
:10067000433441344E342034203420342034623426
:100680006934743473342F342034203420342034CB
:100690004B3462347034733400344D347334673403
:1006A0002034493444342034003420344E346F3400
:1006B00072346D3461346C3420346D346F3464348E
:1006C00065340034203453346C346534653470340C
:1006D00020346D346F346434653400344C346F34FA
:1006E0006F3470344234613463346B3420346D348D
:1006F0006F3464346534003420344C3469347334DA
:10070000743465346E3420346D346F34643465343D
:100710000034203443346F346E34663469346734C3
:1007200020346D346F3464346534003445346C34B3
:1007300065346334743472346F342D3453346F340D
:0E0740006C34753463346F34653473340034B4
:100800008207433441344E345334543441345434E5
:1008100020342034203420343034783400344334CD
:1008200041344E344334543452344C342034203424
:100830002034203430347834003443344E34463459
:1008400033342034203420342034203420342034F5
:1008500030347834003443344E3446343234203427
:100860002034203420342034203420343034783480
:10087000003443344E344634313420342034203470
:10088000203420342034203430347834003443345D
:1008900041344E3449344E345434453420342034B9
:1008A00020342034303478340034433441344E34EE
:1008B00049344E34543446342034203420342034E7
:1008C000303478340034453446344C3447342034A2
:1008D0002034203420342034203420343034783410
:1008E0000034543458344234303443345434523461
:1008F0004C342034203420343034783400345434B0
:100900005834423430345334493444344834203435
:100910002034203430347834003454345834423461
:1009200030345334493444344C342034203420346B
:100930003034783400345234583442343034433410
:10094000543452344C34203420342034303478340D
:1009500000345234583442343034533449344434FB
:100960004834203420342034303478340034523445
:100970005834423430345334493444344C342034C1
:1009800020342034303478340034523458344234F3
:10099000303445344934443438342034203420341D
:1009A000303478340034523458344234303445349E
:1009B00049344434303420342034203430347834D2
:1009C0000034543458344234303444344C34433496
:1009D00020342034203420343034783400345434FB
:1009E00058344234303444344D34203420342034AC
:1009F000203420343034783400340830CF003030A4
:100A000093200B30CE003030AE200130C6200800DD
:100A1000CE20FF306F27E21C1A2D4130CE002A3045
:100A2000AE20BA30CE002930AE200630CE002830BD
:100A3000AE20262D4230CE002A30AE20BA30CE0075
:100A40002930AE200630CE002830AE200030CE0057
:100A50002B30AE200030CE002C30AE200030CE0047
:100A60003030AE200030CE004030AE200030CE001E
:100A70005030AE206030CE006030AE20621CE725E2
:100A8000621800261F30CF000030CE000F30B92092
:100A90006D200230CE003530AE200130CE00363031
:100AA000AE200030CE003730AE20080083303F2724
:100AB0000E30A220E500E50E0310E50C6508043EAB
:100AC00042266425E216080094303F276708312645
:100AD00005308A0067087025A220E500532608002B
:100AE00082070E340F34283429342A342B342C3422
:100AF0002D34303431343234603461346234633410
:100B0000643435343634621F892D6213A1303F2797
:100B10000800E21F8F2DE2130C303F270800013040
:100B20003F2785303F2700304226E2126210E21450
:100B3000FD2C0800E21BA22DE217A1303F270F3049
:100B40003F270800621B08006217A2303F270800F9
:100B5000E21BAF2D670803190800E703642D01307D
:100B6000621F1030E5026508621F650E0F396026AE
:100B70004127A130621BA2303F270800E21BC62D8F
:100B80006708103C031C0800E70A642D0130621F4F
:100B90001030E5076508621F650E0F396026412792
:100BA000A130621BA2303F270800E21F0800053079
:100BB0008A006508CE0067087025CD0000308A00E5
:100BC0004D08AE200C303F276213E2130800FF30BF
:100BD000CE002030AE20E030CE002130AE20FF30FD
:100BE000CE000030AE20FF30CE000130AE20FB3012
:100BF000CE003130AE20E030CE003230AE200800E2
:100C00001B30CE000230AE206630CE000330AE2066
:100C10007E30CE000030AE202B30CE000130AE2032
:100C2000FF30CE002230AE20FF30CE002330AE2089
:100C3000FF30CE002030AE20FF30CE002130AE207D
:100C40002B30CE003230AE207E30CE003130AE20A0
:100C50006630CE003430AE201B30CE003330AE20B4
:100C60000800AD0003308A002D080023AE000430D8
:100C70008A002E080024003E0319412E4127AE0AA7
:100C8000372E0800AD0003308A002D081323AE0074
:100C900003308A002E081E23003E0319522E4127DE
:100CA000AE0A4A2E0800A300A500AC121030A9001D
:100CB000712641270130A900AC1671264127080092
:100CC00082073034313432343334343435343634CA
:100CD000373438343934413442344334443445347D
:100CE0004634A70129082502031C7B2EA70A2908E0
:100CF000A502AC16732E06308A002708602608006D
:100D0000A300A500AC126430A900DB2641270A30FD
:100D1000A900DB2641270130A900AC16DB264127BC
:100D200008002308A5002408A600AC121030A90072
:100D30002730A800EA264127E830A9000330A800A0
:100D4000EA2641276430A900A801EA2641270A3093
:100D5000A900A801EA2641270130A900A801AC1684
:100D6000EA2641270800AC128030A9009630A8007E
:100D70009830AA00AB0103274127AC164030A900E8
:100D80004230A8000F30AA00AB01032741272C30C6
:100D90004127A030A9008630A8000130AA00AB018D
:100DA000032741271030A9002730A800AA01AB0172
:100DB000032741270800A70129082502031CE52E67
:100DC000A70A2908A502AC16DD2E30302707AC1E75
:100DD00020300800A70128082602031CFE2E031D50
:100DE000F52E29082502031CFE2E2808A602290834
:100DF000A502031CA603A70AAC16EB2E303027076A
:100E0000AC1E20300800A7012B082602031C2B2F44
:100E1000031D1A2F2A082502031C2B2F031D1A2F2E
:100E200028082402031C2B2F031D1A2F2908230234
:100E3000031C2B2F2B08A6022A08A502031CA603BD
:100E40002808A402031CA5032908A302031CA40369
:100E5000A70AAC16042F30302707AC1E203008003C
:100E6000A100F030850521080F3985040800043001
:100E70006F2705160000051204306F270800851241
:100E8000422F8516A200220E30273727220830274E
:100E90003727F03085058512080005128512F030DD
:100EA000850510306F2703303027372704306F2730
:100EB00008303027372704306F2702303027372794
:100EC00004306F272C303F2709303F2728303F2739
:100ED0000C303F2701303F2708306F270800B30050
:100EE000C830B500000000000000B50B722FB30B36
:040EF000702F080057
:084000000000010000000000B7
:02400E00713F00
:00000001FF
